{
  "contractName": "PsalmTokenSale",
  "abi": [
    {
      "inputs": [
        {
          "internalType": "contract PsalmToken",
          "name": "_psalmToken",
          "type": "address"
        },
        {
          "internalType": "uint256",
          "name": "_tokenPrice",
          "type": "uint256"
        }
      ],
      "stateMutability": "nonpayable",
      "type": "constructor"
    },
    {
      "anonymous": false,
      "inputs": [
        {
          "indexed": false,
          "internalType": "address",
          "name": "buyer",
          "type": "address"
        },
        {
          "indexed": false,
          "internalType": "uint256",
          "name": "numOfToken",
          "type": "uint256"
        }
      ],
      "name": "Sell",
      "type": "event"
    },
    {
      "inputs": [],
      "name": "psalmToken",
      "outputs": [
        {
          "internalType": "contract PsalmToken",
          "name": "",
          "type": "address"
        }
      ],
      "stateMutability": "view",
      "type": "function",
      "constant": true
    },
    {
      "inputs": [],
      "name": "tokenPrice",
      "outputs": [
        {
          "internalType": "uint256",
          "name": "",
          "type": "uint256"
        }
      ],
      "stateMutability": "view",
      "type": "function",
      "constant": true
    },
    {
      "inputs": [],
      "name": "tokensSold",
      "outputs": [
        {
          "internalType": "uint256",
          "name": "",
          "type": "uint256"
        }
      ],
      "stateMutability": "view",
      "type": "function",
      "constant": true
    },
    {
      "inputs": [
        {
          "internalType": "uint256",
          "name": "_numOfToken",
          "type": "uint256"
        }
      ],
      "name": "buyToken",
      "outputs": [],
      "stateMutability": "payable",
      "type": "function",
      "payable": true
    },
    {
      "inputs": [],
      "name": "endSale",
      "outputs": [],
      "stateMutability": "nonpayable",
      "type": "function"
    }
  ],
  "bytecode": "0x608060405234801561001057600080fd5b506040516107f33803806107f38339818101604052604081101561003357600080fd5b810190808051906020019092919080519060200190929190505050336000806101000a81548173ffffffffffffffffffffffffffffffffffffffff021916908373ffffffffffffffffffffffffffffffffffffffff16021790555081600160006101000a81548173ffffffffffffffffffffffffffffffffffffffff021916908373ffffffffffffffffffffffffffffffffffffffff16021790555080600281905550505061070c806100e76000396000f3fe60806040526004361061004a5760003560e01c80632d296bf11461004f578063380d831b1461007d578063518ab2a814610094578063598b9fd5146100bf5780637ff9b59614610100575b600080fd5b61007b6004803603602081101561006557600080fd5b810190808035906020019092919050505061012b565b005b34801561008957600080fd5b506100926103ff565b005b3480156100a057600080fd5b506100a9610673565b6040518082815260200191505060405180910390f35b3480156100cb57600080fd5b506100d4610679565b604051808273ffffffffffffffffffffffffffffffffffffffff16815260200191505060405180910390f35b34801561010c57600080fd5b5061011561069f565b6040518082815260200191505060405180910390f35b600254810234146101a4576040517f08c379a000000000000000000000000000000000000000000000000000000000815260040180806020018281038252601d8152602001807f4e6f7420656e6f75676820657468657220746f2062757920746f6b656e00000081525060200191505060405180910390fd5b80600160009054906101000a900473ffffffffffffffffffffffffffffffffffffffff1673ffffffffffffffffffffffffffffffffffffffff166370a08231306040518263ffffffff1660e01b8152600401808273ffffffffffffffffffffffffffffffffffffffff16815260200191505060206040518083038186803b15801561022e57600080fd5b505afa158015610242573d6000803e3d6000fd5b505050506040513d602081101561025857600080fd5b810190808051906020019092919050505010156102c0576040517f08c379a00000000000000000000000000000000000000000000000000000000081526004018080602001828103825260318152602001806106a66031913960400191505060405180910390fd5b600160009054906101000a900473ffffffffffffffffffffffffffffffffffffffff1673ffffffffffffffffffffffffffffffffffffffff1663a9059cbb33836040518363ffffffff1660e01b8152600401808373ffffffffffffffffffffffffffffffffffffffff16815260200182815260200192505050602060405180830381600087803b15801561035357600080fd5b505af1158015610367573d6000803e3d6000fd5b505050506040513d602081101561037d57600080fd5b810190808051906020019092919050505061039757600080fd5b806003600082825401925050819055507f5e5e995ce3133561afceaa51a9a154d5db228cd7525d34df5185582c18d3df093382604051808373ffffffffffffffffffffffffffffffffffffffff1681526020018281526020019250505060405180910390a150565b60008054906101000a900473ffffffffffffffffffffffffffffffffffffffff1673ffffffffffffffffffffffffffffffffffffffff163373ffffffffffffffffffffffffffffffffffffffff16146104c0576040517f08c379a00000000000000000000000000000000000000000000000000000000081526004018080602001828103825260178152602001807f4f6e6c792041646d696e2063616e20656e642073616c6500000000000000000081525060200191505060405180910390fd5b600160009054906101000a900473ffffffffffffffffffffffffffffffffffffffff1673ffffffffffffffffffffffffffffffffffffffff1663a9059cbb33600160009054906101000a900473ffffffffffffffffffffffffffffffffffffffff1673ffffffffffffffffffffffffffffffffffffffff166370a08231306040518263ffffffff1660e01b8152600401808273ffffffffffffffffffffffffffffffffffffffff16815260200191505060206040518083038186803b15801561058857600080fd5b505afa15801561059c573d6000803e3d6000fd5b505050506040513d60208110156105b257600080fd5b81019080805190602001909291905050506040518363ffffffff1660e01b8152600401808373ffffffffffffffffffffffffffffffffffffffff16815260200182815260200192505050602060405180830381600087803b15801561061657600080fd5b505af115801561062a573d6000803e3d6000fd5b505050506040513d602081101561064057600080fd5b810190808051906020019092919050505061065a57600080fd5b3373ffffffffffffffffffffffffffffffffffffffff16ff5b60035481565b600160009054906101000a900473ffffffffffffffffffffffffffffffffffffffff1681565b6002548156fe436865636b696e67207468652062616c616e6365206f66207468652027746f6b656e2073616c652720636f6e7472616374a26469706673582212207d67823732a47fed4bcb445d79ee9593a35b10d7b33dace9ebc283d3f7153ba964736f6c634300060c0033",
  "immutableReferences": {},
  "source": "// SPDX-License-Identifier: MIT\r\n\r\npragma solidity ^0.6.0;\r\n\r\nimport \"./PsalmToken.sol\";\r\n\r\ncontract PsalmTokenSale {\r\n    address admin;\r\n    PsalmToken public psalmToken;\r\n    uint256 public tokenPrice;\r\n    uint256 public tokensSold;\r\n\r\n    event Sell(address buyer, uint256 numOfToken);\r\n\r\n    constructor(PsalmToken _psalmToken,uint256 _tokenPrice) public {\r\n      admin = msg.sender;\r\n      psalmToken = _psalmToken;\r\n      tokenPrice = _tokenPrice;\r\n    }\r\n\r\n    function buyToken(uint256 _numOfToken) public payable {\r\n        require(msg.value == (_numOfToken * tokenPrice),\"Not enough ether to buy token\");\r\n        require(psalmToken.balanceOf(address(this)) >= _numOfToken,\"Checking the balance of the 'token sale' contract\");\r\n        require(psalmToken.transfer(msg.sender, _numOfToken));\r\n        tokensSold+= _numOfToken;\r\n\r\n       emit Sell(msg.sender, _numOfToken);\r\n    }\r\n\r\n    modifier onlyAdmin {\r\n       require(msg.sender == admin,'Only Admin can end sale');\r\n       _;\r\n    }\r\n\r\n    function endSale() public onlyAdmin {\r\n       require(psalmToken.transfer(msg.sender, psalmToken.balanceOf(address(this))));\r\n       selfdestruct(msg.sender);\r\n    }\r\n}",
  "sourcePath": "C:\\Users\\dell\\Documents\\WEB\\WEB3\\JAVASCRIPT\\erc20\\contracts\\PsalmTokenSale.sol",
  "compiler": {
    "name": "solc",
    "version": "0.6.12+commit.27d51765.Emscripten.clang"
  },
  "schemaVersion": "3.4.4",
  "updatedAt": "2022-05-27T09:58:41.750Z",
  "networkType": "ethereum",
  "devdoc": {
    "kind": "dev",
    "methods": {},
    "version": 1
  },
  "userdoc": {
    "kind": "user",
    "methods": {},
    "version": 1
  }
}